:100000000207B84180000043845E00FE0000E7E77D
:10001000E7E7E7E7E7E7E7E79082DC7401F0908243
:10002000D0815B9082DD61AA0224A60227F7A80492
:10003000A905AA06AB07E0FFE4FCFDFE229084615F
:10004000E0FF229000342175D2A722021824E07527
:10005000F035908012814F75D9012202240D7F6006
:100060000218EA0224D6E709F608DFFA8046E70913
:10007000F208DFFA803E88828C83E709F0A3DFFA7A
:100080008032E309F608DFFA8078E309F208DFFA44
:10009000807088828C83E309F0A3DFFA8064898210
:1000A0008A83E0A3F608DFFA805889828A83E0A376
:1000B000F208DFFA804C80D280FA80C680D4806952
:1000C00080F28033801080A680EA809A80A880DA4F
:1000D00080E280CA803389828A83ECFAE493A3C8E1
:1000E000C582C8CCC583CCF0A3C8C582C8CCC583A3
:1000F000CCDFE9DEE7800D89828A83E493A3F608EA
:10010000DFF9ECFAA9F0EDFB2289828A83ECFAE0B0
:10011000A3C8C582C8CCC583CCF0A3C8C582C8CC4F
:10012000C583CCDFEADEE880DB89828A83E493A39F
:10013000F208DFF980CC88F0EF60010E4E60C388D2
:10014000F0ED2402B4040050B9F582EB2402B404AB
:100150000050AF23234582239000B673BB0106896C
:10016000828A83E0225002E722BBFE02E3228982D8
:100170008A83E49322BB010CE58229F582E5833A68
:10018000F583E0225006E92582F8E622BBFE06E967
:100190002582F8E222E58229F582E5833AF583E4B7
:1001A0009322BB0111F8E58229F582E5833AF583B4
:1001B000E0C828F0E8225009C58229F8C58226C681
:1001C00022BBFE0DC58229F8E2C5822582F2E582B6
:1001D00022EA2583F583E99322BB010689828A837B
:1001E000F0225002F722BBFE01F322F8BB010DE51D
:1001F0008229F582E5833AF583E8F0225006E92565
:1002000082C8F622BBFE05E92582C8F222BC000B9B
:10021000BE0029EF8DF084FFADF022E4CCF875F03C
:1002200008EF2FFFEE33FEEC33FCEE9DEC9840051B
:10023000FCEE9DFE0FD5F0E9E4CEFD22EDF8F5F0E1
:10024000EE8420D21CFEADF075F008EF2FFFED33E9
:10025000FD4007985006D5F0F222C398FD0FD5F067
:10026000EA22C5F0F8A3E028F0C5F0F8E58215828F
:1002700070021583E038F022A3F8E0C5F025F0F015
:10028000E582158270021583E0C838F0E822BB01D0
:1002900010E58229F582E5833AF583E0F5F0A3E0E5
:1002A000225009E92582F886F008E622BBFE0AE919
:1002B0002582F8E2F5F008E222E5832AF583E99346
:1002C000F5F0A3E99322EF2BFFEE3AFEED39FDECBA
:1002D00038FC22E88FF0A4CC8BF0A42CFCE98EF043
:1002E000A42CFC8AF0EDA42CFCEA8EF0A4CDA8F09E
:1002F0008BF0A42DCC3825F0FDE98FF0A42CCD3562
:10030000F0FCEB8EF0A4FEA9F0EB8FF0A4CFC5F0CB
:100310002ECD39FEE43CFCEAA42DCE35F0FDE43CC4
:10032000FC22EB9FF5F0EA9E42F0E99D42F0E89C4A
:1003300045F022E8600FECC313FCED13FDEE13FE55
:10034000EF13FFD8F122E86010ECA2E713FCED13E5
:10035000FDEE13FEEF13FFD8F022BB010789828A5E
:10036000830203AA5005E9F8020742BBFE05E9F83B
:1003700002074E89828A8302075ABB010DE5822952
:10038000F582E5833AF5830203AA5007E92582F84E
:10039000020742BBFE07E92582F802074EE58229E3
:1003A000F582E5833AF58302075AE0FCA3E0FDA35A
:1003B000E0FEA3E0FF22E0F8A3E0F9A3E0FAA3E067
:1003C000FB22BB010789828A830203B65005E9F844
:1003D00002076ABBFE05E9F802077789828A830271
:1003E0000784BB010DE58229F582E5833AF5830296
:1003F00003B65007E92582F802076ABBFE07E92524
:1004000082F8020777E58229F582E5833AF58302CF
:100410000784ECF0A3EDF0A3EEF0A3EFF022A882A6
:100420008583F0D083D0821204351204351204354E
:10043000120435E473E493A3C583C5F0C583C8C52E
:1004400082C8F0A3C583C5F0C583C8C582C822A4ED
:100450002582F582E5F03583F58322E0FBA3E0FAFF
:10046000A3E0F922F8E0FBA3A3E0F925F0F0E58290
:10047000158270021583E0FA38F022EBF0A3EAF05F
:10048000A3E9F022E493FB740193FA740293F92236
:10049000BB011A89828A83D0F0D0E0F8D0E0F9D08D
:1004A000E0FAD0E0FBE8C0E0C0F002047B5016E9BF
:1004B000F8D083D082D0E0F9D0E0FAD0E0FBC0825F
:1004C000C08302079DBBFE16E9F8D083D082D0E03E
:1004D000F9D0E0FAD0E0FBC082C0830207AF22BBB4
:1004E000010DE58229F582E5833AF58302045B502C
:1004F00007E92582F8020794BBFE07E92582F80286
:1005000007A6E58229F582E5833AF583020484D0C3
:1005100083D082F8E4937012740193700DA3A393B7
:10052000F8740193F5828883E4737402936860EF32
:10053000A3A3A380DF8A838982E473E50B2582F578
:1005400082E50A3583F583B50A0485820B2210AF54
:100550000685820BF50A2285820BF50AD2AF22E5C9
:100560000B2582F582E50A3583F58322E3F5F00950
:10057000E208B5F06BDFF58067E3F5F009E608B552
:10058000F05EDFF5805A87F009E608B5F052DFF635
:10059000804E87F009E208B5F046DFF68042888297
:1005A0008C8387F009E0A3B5F036DFF680328882CD
:1005B0008C8387F009E493A3B5F025DFF5802188CB
:1005C000828C83E3F5F009E0A3B5F014DFF5801029
:1005D00088828C83E3F5F009E493A3B5F002DFF49D
:1005E00002069B808780E9809080D4803E801580C1
:1005F0006E807E809D80B7808D80A38051807480C6
:100600003C0206A789828A83ECFAE493F5F0A3C83A
:10061000C582C8CCC583CCE493A3C8C582C8CCC569
:1006200083CCB5F076DFE3DEE1807089828A83E4F3
:1006300093F5F0A3E208B5F062DFF4805E89828A68
:1006400083E0F5F0A3E608B5F051DFF5804D89822F
:100650008A83E0F5F0A3E208B5F040DFF5803C893D
:10066000828A83E493F5F0A3E608B5F02EDFF480E8
:100670002A8002805789828A83ECFAE493F5F0A3FA
:10068000C8C582C8CCC583CCE0A3C8C582C8CCC5C8
:1006900083CCB5F006DFE4DEE280007FFFB5F00238
:1006A0000F2240027F012289828A83ECFAE0F5F072
:1006B000A3C8C582C8CCC583CCE0A3C8C582C8CCBA
:1006C000C583CCB5F0D5DFE5DEE380CF89828A83B0
:1006D000ECFAE0F5F0A3C8C582C8CCC583CCE4939E
:1006E000A3C8C582C8CCC583CCB5F0AFDFE4DEE2D9
:1006F00080A988F0EF60010E4E60ABED2402B404D7
:10070000005098F582EB2402B40400508E23234558
:1007100082239005E373EF4E6012EF60010EEDBB94
:10072000010B89828A83F0A3DFFCDEFA2289F05074
:1007300007F709DFFCA9F022BBFEFCF309DFFCA9E7
:10074000F022E6FC08E6FD08E6FE08E6FF22E2FCF1
:1007500008E2FD08E2FE08E2FF22E493FC74019344
:10076000FD740293FE740393FF22E6FB08E6F9088A
:10077000E6FA08E6CBF822E2FB08E2F908E2FA081A
:10078000E2CBF822E493F8740193F9740293FA74BB
:100790000393FB22E6FB08E6FA08E6F922EBF608EB
:1007A000EAF608E9F622E2FB08E2FA08E2F922EBAF
:1007B000F208EAF208E9F222787FE4F6D8FD750A39
:1007C00088750B0075810D020805020BC0E493A328
:1007D000F8E493A34003F68001F208DFF48029E4F3
:1007E00093A3F85407240CC8C333C4540F4420C83F
:1007F000834004F456800146F6DFE4800B010204D6
:100800000810204080900003E47E019360BCA3FFA9
:10081000543F30E509541FFEE493A360010ECF540A
:10082000C025E060A840B8E493A3FAE493A3F8E4F9
:1008300093A3C8C582C8CAC583CAF0A3C8C582C865
:10084000CAC583CADFE9DEE780BE0600FF0901A151
:100850000109020903150026FF0075089521812270
:100860000904150026FF00750895229122C0120187
:10087000000200000040FA22010101000102000113
:10088000090229000101008032090400000203006E
:100890000000092111010001222400070581032124
:1008A00000010705010322000118035300690066D7
:1008B00000740065006F00200049006E0063002E88
:1008C000002A03530069006600740065006F002071
:1008D0000057006900720065006C006500730073CA
:1008E0000020004C0069006E006B00FF08A9FF08A3
:1008F000C1FF0892FF084A240905080B0ECC2907FE
:100900000B0DFD00000000CC29070B0DFC000000C2
:10091000000000000000000000000000000000CC0B
:1009200029070B0DFB000000000000000000000084
:10093000009082D91204129082E112041E0000007D
:1009400001120023EC4D4E4F604A120023EF540178
:10095000FFE4FEFDFCEF60159082E11203AA908295
:10096000D91203B61202D39082E1120412120023AC
:1009700078011203469082DD1204129082D912038C
:10098000AAA804A905AA06AB071202D39082D9121D
:10099000041280AD9082E10203AA122490C2B9121F
:1009A000015C6404600261029082D7F09082D312ED
:1009B000041E0000000012001E1220679082D7E083
:1009C0007E0029F9EE3AFA12015C9082D8F090820A
:1009D000D31203B6C000C001C002C0039082D8E0A9
:1009E000FFE4FCFDC004C005C006C0079082DD1214
:1009F000041E00000008D007D006D005D004313115
:100A0000C004C005C006C0079082D8120036C004DA
:100A1000C005C006C0079082DD12041E0000001051
:100A2000D007D006D005D0043131D003D002D00198
:100A3000D0001202C6C004C005C006C0079082D80C
:100A4000120036C004C005C006C0079082DD120443
:100A50001E00000004D007D006D005D0043131D0EC
:100A600003D002D001D0001202C6C004C005C006E7
:100A7000C0079082D8120036C004C005C006C00767
:100A80009082DD12041E00000002D007D006D005BF
:100A9000D0043131D003D002D001D0001202C69070
:100AA00082D812002E1202C6D003D002D001D0008C
:100AB0001202C69082D31204121233DDC3940C507A
:100AC0000221B6E49082D7F0908001740412001DD8
:100AD000908003E09082DDF09082D31203AA90828E
:100AE000DE120412908002E0FF12206F12003DEF30
:100AF00060FA1233DDC3940A40CE12001E7408025D
:100B000001D912001E12015CB40812123379740567
:100B1000F0908001F0908003E0FD02218512001E1C
:100B200012015C20E00261BF908003E0FF121C38DC
:100B30001233D590800ECFF0A3EF12001D12015C8E
:100B400030E1429080017402F0120043600F120005
:100B50001E1229FFFA12015C44801201D912001EF4
:100B60001229FFFAC003C002C00112001E90003219
:100B7000120175FD12001E1221DBF0D001D002D04F
:100B800003D1C78027908002E09082D312001D120B
:100B9000004360079082D3E04480F09080017401AC
:100BA000F09082D3E0FF1224961221EE12001E1262
:100BB00000437F0070027F01900034EF1201EB22AE
:100BC00075A91875B91B75E610D2927E017F3E7A21
:100BD00080791212339F7E007D0012336D7E007F7C
:100BE000117A80790112339F9080047401F0908013
:100BF00010F0A37490F0122305D2AF1217F6EFC3D2
:100C0000940340F79082CDE4F0A3740BF09080063B
:100C100012041E00000000D2FBE49082CCF090820F
:100C2000CCE0FFC394054002A12CA3E0FCA3E02F7D
:100C3000F582E43CF583E09082CFF09080061203C9
:100C4000B6C000C001C002C0039082CF120036C0FF
:100C500004C005C006C0079082DD12041E0000001B
:100C600008D007D006D005D0043131C004C005C07B
:100C700006C0079082CF120036C004C005C006C06F
:100C8000079082DD12041E00000010D007D006D0AD
:100C900005D0043131D003D002D001D0001202C6F9
:100CA000C004C005C006C0079082CF120036C00441
:100CB000C005C006C0079082DD12041E00000004BB
:100CC000D007D006D005D0043131D003D002D001F6
:100CD000D0001202C6C004C005C006C0079082CF73
:100CE000120036C004C005C006C0079082DD1204A1
:100CF0001E00000002D007D006D005D0043131D04C
:100D000003D002D001D0001202C69082CF12002E72
:100D10001202C6D003D002D001D0001202C69080C9
:100D2000061204129082CCE004F0811E9082CD1253
:100D300026B7B1DBC2FBE4FFFEFDFC908006120388
:100D4000B6C3120322700A90800612041ECCCCCCCB
:100D5000CCD2B97D207C4E7F147E00F1281224AEC7
:100D600012003DEF604E908004E0B4011AB1B9EF7B
:100D70007015908004F0908001740312337804128F
:100D80001533122120802DE49082CCF0908002E077
:100D900004F0E075F00684AFF0EFF012004FE06071
:100DA00007122881319A800C9082CCE004F0E0C3D5
:100DB000940640D8122A0680A790800AE0FEC394C9
:100DC0000640037F012290800CE0600CA3E0FFEE60
:100DD000C39F40047F0180027F002212249078D3B9
:100DE0007C827A0879F81221159084617401F0E40C
:100DF000A3F0A3F0C2907F01121D9B7F01121DC5BD
:100E00007F01121DAF7F011232D57D20E4FF123227
:100E10000D7F051231EE12001ED1827F06D189129C
:100E2000001ED182E4FFD189D17C7F01D1747F0281
:100E3000D1747F03D1747F04D174FFD1897F0112F3
:100E40001E597F02121DF67F01121DDB7F50121CFE
:100E5000387DF47C017F0F1231C17FFF121C967D1B
:100E600001E4FF121CE2E4FF121C45121A141219CD
:100E7000EA0219E1D1899082D3E004F07B017A8201
:100E800079D39083667405F02290836312047B907B
:100E90008362EFF014600A24FB501C600424067087
:100EA00025908362E0242AFFA312045B908366E00E
:100EB00090836BF0022C88908362E0240AFFA312D7
:100EC000291FFD121C752290835912047B90835CAC
:100ED000EDF0908461E0604F1219E1E4908461F0DC
:100EE00090835D12045BD1827F06D18990835D126D
:100EF000045BD182E4FFD189908360E090835960E4
:100F0000091233CDFD122CBF80071233CDFD122CF8
:100F1000C89083617414F0D290908361E0FF14F064
:100F2000EF70F6C290D2B922E4FB121A1F9083240C
:100F3000EFF0701390832674FFF0A3740DF07B0123
:100F40007A8379250214F4908003E0FF908324E0F3
:100F5000FE6F6038908003EEF0E4908324F090837D
:100F600024E0FFC39406502475F035EF120052E0E0
:100F700030E009908324E07D0A12108B90832412C4
:100F8000004EE4F0908324E004F080D2229083B2FB
:100F900012047B90800CE07002FF22E49083B5F095
:100FA0009083B5E0FFC39406502AEF1214B7FA7B82
:100FB00001C003C002C0019083B21217FCAD03D080
:100FC00001D002D00312153A7002FF229083B5E0DF
:100FD00004F080CC7F01229083ABEDF09083A812C7
:100FE0002C0764FD7051121081121FD29083ACEF58
:100FF000F0BFFF1512108174FF1201D99083A8125F
:101000001E52740B1201EB80309083AC12004EE044
:10101000FF600330E026EF30E0059083AC1187904D
:1010200083ACE0FF12004F7404F075F035EF908050
:101030004512044FE4F0221181122B57221228810D
:101040009083A812047B908001E024FD601424FEAC
:10105000601924037025118112015C54FD1201D91D
:101060008019908005E0240AF0801011817401122B
:1010700001D9908002E0FF7D09118BE4908001F09E
:10108000229083A802045BE0FF7D0A9083ADEDF01F
:101090009083AF74FFF0A3EDF0A3EFF078B27C8300
:1010A000F1127B017A8379AE91F49083ADE0908068
:1010B0000AB40904E004F022E014F0229082FB124A
:1010C000047BF1039082FEF0F10C9082FFF1EF902F
:1010D0008300F012050F110401114103114A04119C
:1010E0008E0512100613310713AA08115C0C142088
:1010F0000E13DA0F144E12146413147D17148E1984
:10110000000014B2E490831FF0A304F0F1D3502A3E
:10111000A3E0C3941D502375F035EF120052E03068
:10112000E01490831FA3E0FE04F074012EF582E426
:101130003483F583EFF091C380D2908320E0146173
:10114000A4B12BA3F0A3740461A7B14DC3940450C0
:1011500007E4908301F08175B12B8175C2AFE4FF84
:10116000122CFF7D02E4FFFE122CDF7D787F017ED2
:1011700000122CDFE4FD7F02FE122CDF90C7D6E0C8
:101180004408F0E4F5AB75AC0A75AD0880FE9083B9
:101190002074FFF0E490831FF0F1D35049EF91B732
:1011A000FA7B01C003C002C001F1DCA801FCAD0361
:1011B000D001D002D003B13A700890832074FFF0C0
:1011C000802491B3FA7B0190832112047B908320C9
:1011D000E0F4700EA312045B91CA700690831FE0C6
:1011E000A3F091C380B3908320E0FFF4601EF1DC94
:1011F000FAC001EF91B7A801FC7D01D001F122E412
:10120000908301F090800DE004F08002B12B817595
:10121000F1DCFA90831F12047B12035A74FF91E6EB
:10122000706690831FB14612037A74FF91E670587E
:1012300090831F12045B90000812037A74FF91E6FA
:101240007046FEFD12336D90800CE0602EE49083BA
:1012500022F0908322E0FFC39406501F75F035EF13
:10126000120052E030E0047D0A118B9083221200BC
:101270004EE4F0908322E004F080D7E490800DF0FB
:10128000908301F091EE612FE4908322F09083220D
:10129000E0FFC3940640026126EF91B7FA7B01C0DC
:1012A00003C002C00190831FF1FCAD03D001D00246
:1012B000D003B13A706890800CE0603CE4908323E6
:1012C000F0908323E0FFC39406502D1220559083A5
:1012D0001F12045BB13A7018908323E0FF12004F95
:1012E000E030E0047D0A118B90832312004EE4F07D
:1012F000908323E004F080C990800DE014F07E001C
:101300007F0CC006C0077D0090832291B6FA7B0156
:10131000D007D006120716E4908301F0800890836E
:1013200022E004F0418D908322E0B40602B12B81CB
:1013300075B14D606690800CE0706090831FF0E4A2
:10134000908320F0908320E0FFC39406501DEF911E
:10135000B7FA7B01C00190831FE0122056D001B183
:101360003A6008908320E004F080D9908320E06404
:1013700006701890831FE0FF12004FE030E0047DFC
:101380000A118B90831F12004EE4F091C3E0C394C6
:101390000640AC90800C7401F08008B14D70049050
:1013A000800CF0E4908301F08175E490831FF0F1EC
:1013B000D3400281B275F035EF120052E030E016F2
:1013C0009083007409F090831FE0908301F078020D
:1013D0007C83F11291EE91C380D5E490831FF0A33A
:1013E000F091B3FA7B0190832112047B91CA6018BB
:1013F0009083007410F091B3FA0B78017C83F12094
:1014000091EE908320E004F091C3E0C3940640D1B4
:101410009083007411F0908320E0908301F0805558
:10142000908003E0908301B133908302B132780859
:10143000120333908303B132781012033390830484
:10144000B1327818120333908305EFF08027B1434F
:1014500012028EFF908010E5F0F0A3EFF0E490838D
:1014600001F080119083007414F01233D590830141
:10147000CFF0A3EFF07B017A8279FE8077B143123F
:10148000037AAD07AC067B01E4FFFE021A1FB143ED
:1014900012028EFFAEF090831FEEF0A3EFF09000EB
:1014A0000612028EFDACF0908321ECF0A3EDF01259
:1014B0000F282290831FE075F00CA42450F974814A
:1014C00035F02290831FE004F02290000412037A8A
:1014D0001203C21202C690832112045B900008120C
:1014E00003E21202C6E4FBFAF9F8C30203227B010D
:1014F0007A8279FE9083CF122B9D702E122B93C38C
:101500009FFFBF0405122B2380F29081BCE09083E3
:10151000D2122C4C9081BCE004F09083D2F1FC906C
:1015200083CF122C137F2112013622908301740184
:10153000F022EFF09080060203AA7E007F0C1206D4
:10154000F2EF229082FB12045B900004229082FB57
:1015500012045B900004020175122490E49082DC76
:10156000D1F0E41201D912001EF10364066002A159
:10157000F4F10C24DF6048146002C1E5120018B1D8
:101580005375F007A424F4F582E43408F5831204BB
:1015900084C003C002C001D1F712049012001EB132
:1015A0005375F007A424F7F582E43408F583E49337
:1015B000FFF1E9FEEFC39E50028034AF0680301287
:1015C0000018B15375F007A424F1F582E43408F54E
:1015D00083120484C003C002C001D1F71204901228
:1015E000001EF1E9FF7409C39F50047F098000D1F8
:1015F000FDEFC18112001E12015C20E502C1E5F180
:101600000324FE603714603F24FA7002C1CA1460DC
:1016100030146076240A6002C1E59082DC7401F027
:10162000E4908456F09084551233C5C003C002C0C4
:1016300001D1F7120490D1FD74038045D1EBE4C1D0
:10164000C5D1EB7405807E120018B153FF74017E82
:1016500000A807088005C333CE33CED8F9FF9084A5
:101660005DE0FDEF5D7F0060027F01908455EF1229
:1016700033C5C003C002C001D1F7120490D1FD747C
:10168000011201D9D1F17404803B120018F1F0B4B9
:10169000011690845DE0FFB153FE7401A806088036
:1016A00002C333D8FC4F801590845DE0FFB153FE38
:1016B0007401A806088002C333D8FCF45F90845DEF
:1016C000F0D1F174011201D9801B12001EF10CFF40
:1016D000B40303E4800BEFB4020BD1F174011201E7
:1016E000D99082DCF09082DCE0FF229082DC7401F1
:1016F000F09082D902045B9082D302045B9082D680
:1017000002045B90000102017512045B900002026A
:10171000017575F035A42413F9748035F0FA7B0156
:101720007D017E007F0C02013690FFDE12053B1228
:10173000335190C7C774FFF0F183A3F0F183A3A3E3
:101740007415F0F181A982AA8391F4F17BE4F0F1A0
:101750007BE0FFC39406501D75F035EF120052E098
:1017600030E004F17B1187F17B12004EE4F0F17B55
:10177000E004F080DA90002202053B90002102058F
:101780005F7B01850A83850B822212271C122C0D98
:10179000F183A312045BC003C002C001122AF990B6
:1017A00082D312047B900007122AFC9082D6120486
:1017B0007BF181A982AA8312220AD001D002D00330
:1017C000B159EF6006F183E0FF80027F8090000A4C
:1017D00002053B90831FE0FFC39406229082FB1218
:1017E000045BE92404F9E43A22900005020175F053
:1017F00090000302017590841EE0FF2212045BA892
:1018000001AC0222908001E064036017A3E0FF12A4
:10181000004FE030E00D7D0A12108B908002120024
:101820004EE4F022C0E0C0F0C083C082C0D075D0CA
:1018300000C000C001C002C003C004C005C006C093
:10184000075114908385EFF030E6327B017A83797B
:1018500086318F9083A6EFF0D39400401B90846371
:10186000E07B017A8379869083A66007E0FD122DE4
:10187000D38005E0FD120FD711DFEF60CE90838596
:10188000E030E50E9084617401123378F012103D5F
:101890008032908385E030E42B90800E1233957077
:1018A0000C9084617402F031E1110480171232E36C
:1018B0009083A77414F0D2909083A7E0FF14F0EF08
:1018C00070F6C290D007D006D005D004D003D00265
:1018D000D001D000D0D0D082D083D0F0D0E032126E
:1018E00032A55401FF22EFF07F02C2913185E4FF5F
:1018F0003185D2912290846A11E690846BEFF07F5B
:101900000111EA90846CEFF090846AE0146018147E
:1019100060201460271460301460372405704490F0
:10192000846BE0317A803490846BE0C33179C313E7
:10193000802990846BE031781313801F90846BE0D2
:10194000133178131313801390846BE0C4317AC47D
:10195000800990846BE0C43179C413540190846E83
:10196000F08007E490846DF0A3F090846EE025E0B1
:10197000FF90846DE02FFF221313540190846DF0CB
:1019800090846CE0228FE5C2C030C0FDAFE52290AC
:1019900083A812047B12317FEFC39407503C1200DE
:1019A0005E9083ACEFF0D39420502DE09083ABF0A9
:1019B000C2917F6131859083ABE0FF14F0EF60103E
:1019C000E4FF31859083A81233A6EF1201D980E697
:1019D000D2919083ACE0FF2231EA7F002251143192
:1019E000EAC2917FE13185D29122C2917FE23185B5
:1019F000D2912290834FEFF0C2B9C290914590836B
:101A00004FE0700431DD800990834FE0B40102D2D1
:101A100090D2B9227D707F079175EF5470FF2290AC
:101A20008346EEF0A3123380F0E490834DF0908370
:101A30004BF0908461E060FAC2B951147F01914586
:101A4000D29090834E7403F0A374E8F090834E120A
:101A5000339570F890834AE06077908462E09083D9
:101A600073F0E4908352F0A374FFF0A37416F0E4D3
:101A700090834CF090834CE0FFC394505043B16D81
:101A8000D130500EB164EF600590835071347131E4
:101A900080EE90834CE0908355F0908348E0FFA364
:101AA000E0908356CFF0A3EFF0908350E0FFA3E0E7
:101AB000908358CFF0A3EFB17E90834CE004F08088
:101AC000B39083547418B17E908373E0FF91388093
:101AD00052E490834CF090834CE0FFC39450504309
:101AE000B16DD1305024B164EF601B9083507134DC
:101AF000FEC3908347E095F0908346E09E5007E454
:101B000090834BF08004713180D890834BE004F0D7
:101B1000B40508A3E024FEA3F0800890834CE00401
:101B2000F080B331DDE4FF9145C29090834DE0FF3A
:101B30002290834EE475F0010202627B017A837980
:101B40000590834812047B908432E07002A3E07019
:101B5000637F0131F3E490834BF090834BE070405E
:101B6000908454E06007E4F09084327135122A6862
:101B7000B50703D38001C340E1EF122C3D7B0190F8
:101B8000834C122C07B4BF1390834C121709B4591D
:101B90000AE4FF31F390834B7401F01229F880BA04
:101BA000D14474031201EB90000274571201EB90C0
:101BB00084328068E4908346F0A3F0FF31F3908490
:101BC00032E0FEA3E0FF4E60417C007D20AE04C009
:101BD000057B017A837926AD07D00712071690831B
:101BE0002674BF12337804F0FB7A837926908353EE
:101BF000F07D20122D84EF6005908346713490842F
:101C00003274FFF5F012026280B4D1447401120103
:101C1000EB90000274561201EB908346E0FCA3E0C7
:101C2000FDEC9000031201EBED9000041201EB7B40
:101C3000017A8379050214F4908462E06F6005EF05
:101C4000F012326522908374EFF0E4FF11EA908382
:101C500075EFF0908374E0B40107A3E04401F080D5
:101C600007908375E054FEF0908375E0FDE4FF80FB
:101C700004E0FD7F029083A8EDF0C291EF2420FFE5
:101C800031859083A9EFF09083A8E0FF3185D29150
:101C90009083A9E0FF229082D811E69082D9EFF0DC
:101CA0007F0111EA9082DAB194FF24FA50062407EA
:101CB000601B80207401A807088002C333D8FCF49D
:101CC000FD9082D9E05DF0A3E05DF08007E49082B2
:101CD000D9F0A3F09082D991719082DAE0FD7F0172
:101CE00080939082D8EFF0A3EDF07F0211EA90820A
:101CF000DAEFF07F0111EA9082DBB194FF24FA5011
:101D00000624076038804F7401A807088002C33397
:101D1000D8FCFD9082DAE04DF09082D9E060089026
:101D200082DBE04DF0802F9082D812269F8002C384
:101D300033D8FCF4FF9082DBE05FF080199082DA08
:101D4000743FF09082D9E060089082DB743FF080AD
:101D500005E49082DBF09082DA91719082DBE0FD05
:101D60007F0181757F0911EAEF5401FF22E490831E
:101D700050F0A3F09138E490834EF0A3F022F07B72
:101D8000017A8379520214F49082D8EFF07F1D110A
:101D9000EA9082D9EFF09082D8E022B1887F00608B
:101DA000027F01EF54011233AD54FDD1218175B191
:101DB000887F0060027F01EF540125E01233AD54AB
:101DC000FBD1218175B1887F0060027F01EF540152
:101DD000FF9082D9E054FED12181751233BDB18FBD
:101DE000B40107A3E04402F080079082D9E054FDDB
:101DF000F01233B581751233BDB18F1460101460C9
:101E000015240270179082D9E054F7F0800ED12883
:101E1000E054FBF08006D128E04404F01233B58191
:101E2000754FF0E0FD7F1D229082D9E04408F0223A
:101E3000908348E0FEA3E0FFC390834FE09F908330
:101E40004EE09E2290834812045B74BF1201D99029
:101E5000834812045B900001229082D8EFF07F0645
:101E6000B18F600C24FE70159082D9E0442080066A
:101E70009082D9E054DFF0E054F7F0800B9082D9E3
:101E8000E054DFF0E04408F09082D9E0FD7F068165
:101E9000759082FB123380F078007C837A0079138E
:101EA00012211512003DEF60FA7F01122D7EC290C3
:101EB0009082FBE0FF91387B017A837900120E82D9
:101EC000E4FF120E89E4FDFCFF1231C19082FEE0B6
:101ED000700A9082FCE0FEA3E0FF80047E007F0099
:101EE000908432EEF0A3EFF09082FFE07002713B3D
:101EF00022908478EFF0A3EDF0E4FF11EA90847A69
:101F0000EFF0908478E024FB601514602A240270BE
:101F10003DF15760027F0090847A123312802FF1D6
:101F20005760027F00EF5401C43354E0FF90847A7D
:101F3000E054DF4FF08017F15760027F00EF54014B
:101F4000C4333354C0FF90847AE054BF4FF0908480
:101F50007AE0FDE4FF8175908479E07F012290842E
:101F60006512047B908464EFF014600C24FB60081D
:101F700024FE60132408702812320312338B9084DD
:101F800064E0240AFF801512317F908464EFF0C36F
:101F90009407500C12005E12338B7F6131858009EB
:101FA000E4908469F0908468F0908468E0FF14F015
:101FB000EF6010E4FF31859084651233A6EF1201C3
:101FC000D980E6D291908464E0FE908469E0FDEDD2
:101FD000FF22122C1B9083AF12047B120F8DEF7027
:101FE00006120DB9EF60037FFF229083AE74FFF0FD
:101FF000E49083ADF09083ADE0FFC39406503FEFD3
:1020000012288512015C702E1167C003C002C00146
:102010009083AF1217FCAD03D001D002D00312158C
:102020003A70069083ADE0FF229083AEE0B4FF06E5
:102030009083ADE0A3F09083ADE004F080B790838F
:10204000AEE0FFF460091155A312045B1217229051
:1020500083AEE0FF22EF75F035A42413F9748035C8
:10206000F0A801FC7D0122E92401F9E43AFA22906A
:1020700082D9EFF0A312047B7A0979077F0531CE6C
:1020800078E77C827D017BFF7A09790C7E007F13E3
:10209000120136310F116778E87C8212172031095E
:1020A000EF540FFFEF4430FF310F90000D310578F2
:1020B0000812033390000E3105781012033390009C
:1020C0000F31057818120333900010EF1201EB90D6
:1020D00082D9E09000111201EB9082DDE09082F451
:1020E000F0919678F57C827D01311931C67A82793A
:1020F000E290835D12047BE4908360F07A8279E75A
:102100007D13020EC7EF1201EB9082DE0203AA904C
:1021100082DA02045B7D017BFF7E007F05020136CF
:102120009082D012041278D47C827D017BFF7A08E1
:1021300079FD311978D97C827D017BFF7A0979029A
:102140003119317F9082DAEFF0317F780812033352
:102150009082DBEFF0317F78101203339082DCEF56
:10216000F0317F78181203339082DDEFF031C67AB8
:102170008279D431E2F07A8279D97D05020EC79056
:1021800082D00203AA510A9082DCEDF078DD7C82D5
:102190007D017BFF7A09791F31197A0979247F0D36
:1021A00031CE1216F1116778E37C821217209082EB
:1021B000DCE0FF121C381216F131DBF0FB7A827979
:1021C000E27D0D020EC77F50121C387B012278E29F
:1021D0007C827D017BFF7E00020136E9240DF9E45B
:1021E0003AFA90835D12047B908360740122510A55
:1021F00090845EEFF0908460E0041216F031E2F01B
:10220000FB7A84795E7D03020EC79082D902047B3B
:102210009082D112047B7BFF7A08796E90840E1233
:10222000047B90840E12047B7A08798090841112CA
:10223000047B7A0879EB90841412047B90841774E1
:1022400004F0A314F0A37409F0A37404F090841EA6
:102250007402F0E490841BF0908431F090841CF0C0
:10226000A3F09082D112045B90841F12047B9082B1
:10227000D412045B90842212047B9082D712045BF8
:1022800090842512047B310F90842812047BEF6028
:102290000991A67F3251E454F7F0D2BBD2BC90C76B
:1022A000AE741DF090C7AC7401F090C7A9741FF014
:1022B00090C7AD7401F090C7AA741FF090C7815108
:1022C000D790C7887418F0A351D790C7DE04F0A345
:1022D000F0E4A3F0A3F0227410F0E4A3F0A3F0A3C1
:1022E000F0A3F02251EB90C7D6E022E4FEEEC39FAC
:1022F0005012E4FDE4FC000CECB416FA0DEDB462EF
:10230000F30E80E922123351FBFAF99082D41204C1
:102310007B7BFF7A1779299082D712047B7A2C79FC
:10232000739082DA12047B7A17798A7F0151107BCD
:10233000FF7A2A79727D227F0171457B007A0079CC
:10234000007D217F819190AC07EF547FFE14908235
:10235000D3F07401A806088002C333D8FC9082D45D
:10236000F0EC30E74BEDD39400403312001EE94A05
:102370004B601E12001E9105A424F0F582E4348304
:10238000F58312047B90C7AC71FEFEEF4E90C7AC94
:10239000F090C7DE71FEFEEF4E90C7DEF02290C7D0
:1023A000AC71FEF4FEEF5E90C7ACF090C7DE8047E4
:1023B000EDD39400403412001EE94A4B601B12001A
:1023C0001E9105A424FFF582E43483F58312047B77
:1023D00071FBFEEF4E90C7ADF090C7DF71FEFEEFD0
:1023E0004E90C7DFF0EC91CA819E71FBF4FEEF5E68
:1023F00090C7ADF090C7DFE05EF02290C7ADE0FF80
:102400009082D4E0229082D3E075F00322C0E0C035
:10241000F0C083C082C0D075D000C000C001C0022F
:10242000C003C004C005C006C00790C7D6E030E7AF
:10243000227480F090841BE030E11F90C7D6E04406
:1024400002F00000E054FD4401F07F0751E454FE27
:10245000F0800790841BE04404F090841BE090849B
:102460001E30E0057404F080037402F0908425129D
:10247000045B120535D007D006D005D004D003D0B8
:1024800002D001D000D0D0D082D083D0F0D0E032C2
:102490009082D002047BE9240DF9E43AFA22898281
:1024A000F58374FFF02290C7D6E04408F022E4F5EB
:1024B000C8C2C6F5C1D2CFF5CBF5CAD2ADD2C822BB
:1024C000EF20E705EF91CA919E2275F002A424C582
:1024D000F974C735F022C0E0C0F0C083C082C0D01C
:1024E00075D000C000C001C002C003C004C005C058
:1024F00006C00790C7A8E012050F253100253C044F
:10250000254408255C0C256610257118257B1C25A3
:102510008A2025DC24258A2825DC2C258A3025DC08
:1025200034258A3825DC3C258A4025DC44000026F9
:102530004290C7AB7401F0122FC6C14290C7AB7472
:1025400002F0C14290C7AB7404F07B007A007900BE
:10255000F1B9E4F0A3F0908431F0C14290C7AB74BC
:1025600008F0F1C3C14290C7AB7410F012310AC138
:102570004290C7A97401F0F125C14290C7AA740125
:10258000F09083EEE4F0D1C1C14290C7A8E024E806
:10259000D1968002C333D8FC90C7A9D18324B4F963
:1025A00074C7D15DE0547FD16C9083E3122C2E90E0
:1025B00083DFE09083E5122C5FD1A7C003C002C087
:1025C00001D17BA424EDF582E43483D18CD001D0F9
:1025D00002D003D173F0606AE0FF805590C7A8E095
:1025E00024E4D1968002C333D8FC90C7AAD18324B7
:1025F000C4F974C7D15DE0D16C74C09FF974C695FD
:10260000F0AF019083E3D164E091CAAF019083E51C
:10261000F0A3EFF0D1A7C003C002C001D17BA42476
:10262000FCF582E43483D18CD001D002D003D17385
:10263000F0A3E0FCA3E0FD9083E5E0FAA3E0FB1249
:10264000312CD007D006D005D004D003D002D00161
:10265000D000D0D0D082D083D0F0D0E03235F0AFEF
:10266000019083E1F0A3EFF09083DF2275F080A466
:10267000FFC3221205399083E0EF229083DFE075DB
:10268000F00322F0EF547F75F002A422F5831204C8
:102690005B89828A8322131313541F9083DFF0E037
:1026A000FF7401A80708229083E5E0FEA3E0F5820D
:1026B0008E83E0FD9083E3E0FEA3E0AA06F97B01B0
:1026C000227A8379EAF11A7A8379E7F11A7B017A1F
:1026D00084792BC003C002C00190841FD18ED00129
:1026E000D002D003120539EF146022146021146067
:1026F0002824FE601804701E9083E712045B908308
:10270000EAE0122F9A5002AD06F1A48018E19D90E4
:10271000C7C574FFF022122EBF227B0190FFFD126D
:10272000053B02047B9083EEE0FD701C908431E059
:10273000B4010890C7B4E04410F0229084317401D1
:10274000F0E490C7B5F080559083EFE0FFEDC39FB4
:1027500050079083EEE0FF8000E4FEEEC39F50162A
:102760009083EB122C23FD74002EF582E434C7F520
:1027700083EDF00E80E59083EFE0FEEFC39E500600
:102780009084317401F090C7B5EFF0FD9083ECE4D4
:102790008DF01202629083EEE0C39FF02290C7B4E6
:1027A0007402F022F1B9EDF090840E12045B9000F7
:1027B000071201759083EFF0229083EB12047B9057
:1027C00083EE22E4FD90841BE054FBF090841EE035
:1027D000B4040890841BE030E1010D90841E740560
:1027E000F090842812045BE94A4B600AAF0590849C
:1027F00028D18E12053922C0E0C0F0C083C082C04B
:10280000D075D000C000C001C002C003C007C2C65E
:10281000908005E0D394004008E014F090800080A0
:102820000D908000E0FF04F0EFD3940A4007E4F03D
:1028300090800404F0C2B9908384E4F0908384E033
:10284000FFC394065024EF118512015CD39403401A
:102850001190003374011201A2D394054004E412D4
:1028600001D9908384E004F080D2D2B9D007D0039C
:10287000D002D001D000D0D0D082D083D0F0D0E030
:1028800032908002E075F035A42412F9748035F09E
:10289000FA7B01229082FB12047B12170CFEC39478
:1028A0000640037F0122EE11859082FE9107FE20F3
:1028B000E0037F0122EE30E1037F02229082FB31B0
:1028C0001F547FFF3115EF1201EB9000321201759A
:1028D000D394204007311574201201EB31151201F9
:1028E00075FF7E009082FB12045B911BC003C00247
:1028F000C0019082FE12045B31FFA801FCAD03D041
:1029000001D002D0031201369082FE311F44021220
:1029100001D97F00229082FE12045B9000322212C5
:10292000045B02015CE49082D0F0C2BC5168B50740
:1029300003D38001C37E0040027E01D2BCEE700250
:1029400021F2EF9082D1711012015C64BF705A9035
:1029500082D11217099082F71217EF9082F8F012C5
:102960001553FE1217E9FDEDFF9082F5EEF0A3EF8F
:10297000F09000061201759082F9F09000071201A4
:10298000759082FAF031F89082F7E0B45519A3E01F
:10299000FF9082F5E0FCA3E0FD9082F9E0FBA3E06C
:1029A0009082FFF0121E9180439082D1121709B4D9
:1029B000FF071210BC31F88033C2B99082D11204E3
:1029C0005B1194D2B9EF64026028EF70089082D155
:1029D000311F20E7159082D574FFF0E4A3F0A3EF38
:1029E000F07B017A8279D41214F431F89082D07499
:1029F00001F09082D0E0FF22908243E004F022E9CF
:102A00002412F9E43A229081BBE06401701771A0AE
:102A100070233125EF600CC2BC9081BAE060025196
:102A200036D2BC612390C7B6E020E1F912003DEF39
:102A300060FA75A401225168FEC39FFFBF0403D34F
:102A40008001C34022EE9082D0711012001EA801B6
:102A5000AC02AD037B017A8179987102E49081BA6E
:102A6000F090C7C774FFF022908243E0FF9082424B
:102A7000E022910DEDF012271C90FFFC12053B9017
:102A8000C7B6E020E1F990000712055FE06422601C
:102A90000751F37480F080515168FEC39FFFBF045B
:102AA00003D38001C34028EE913D12178112047BAD
:102AB00051F9C003C002C0011217831217FCAD0305
:102AC000D001D002D003710251F374FFF0801A904C
:102AD00081BA7401F051F978987C817D017E007F84
:102AE0002212013651F37460F051F3E0FF900008B8
:102AF00002053B90000302055F90000412055F028F
:102B0000045B7E007F22120136908242E004F022B4
:102B1000540375F022A42444F9748235F0FA7B0141
:102B200002047B7193B50703D38001C34028EF549F
:102B30000375F021A424BEF9748135F0FA7B01906D
:102B4000C7B6E020E1F99083D97421F07F8171A7A5
:102B50009081BDE004F0229083AD719D703471933B
:102B6000C39FFFBF0404712380F49081BCE0908375
:102B7000B0914C9081BCE004F09083B012045BE90A
:102B80002401F9E43AA801FC9083AD91137F20124F
:102B90000136229081BDE0FF9081BCE02212047BCF
:102BA0001217F6EF6404229083D612047B9083D52B
:102BB000EFF0547F12266C9083DB912E9083D5E04A
:102BC0009083DD915FE49083DAF09083D9E0FFA3F6
:102BD000E0FEC39F501E9083D69123FF9083DBE0DD
:102BE000FCA3E02EF582E43CF583EFF09083DAE07D
:102BF00004F080D69083D9E0FF9083DDE0FCA3E071
:102C0000F5828C83EFF02212047B02015C90FFFFBF
:102C100002053BAD0312045B7E0022E92402F9E4C5
:102C20003AFA2212045B8E827583000201757400E9
:102C30009FF974C795F0AF01F0A3EFF0225403752C
:102C4000F022A42444F9748235F0FA22540375F07A
:102C500021A424BEF9748135F0FA7B0102047B546F
:102C60007F75F002A424B5F974C735F0AF01F0A365
:102C7000EFF022910DEFF0E49081BBF075D9017572
:102C8000A50290000102053B90836812047BC2916B
:102C90008FE5C2C0E4FF90836BE0FCEFC39C50174C
:102CA00090836812045B8F829128FD30C0FDAEE5F1
:102CB0008DE5C2C00F80DF30C0FDAEE5D29122901D
:102CC000836BEDF07FA080C090836BEDF07FB080D0
:102CD000B7EF44A8FF908473E090836BF080A991D4
:102CE000F38E0C8F0D850D82850C83EDF0C2FD7582
:102CF0008E0222758E0175FAAA75FA55D2FD2291BF
:102D0000F38FFA20FCFDC2FD758E022290847DECCB
:102D1000F0A3EDF091F38E088F09EB1BAE0270016A
:102D20001A4E602790847DE475F00112027885F0D8
:102D300082F583E0FF0509E509AC08700205081477
:102D4000F5828C83EFF030FCD180FBC2FD758E02E2
:102D50002290847BEAF0A3EBF090847B74FFF5F083
:102D600012027845F060168F828E83E08D828C830C
:102D7000F00FBF00010E0DBD00010C80DC2290841D
:102D800063EFF02290834F12047B908352EDF07832
:102D9000547C837D017BFF7A00790E122119908388
:102DA00052E0FD7B017A83795490835D12047B901D
:102DB0008353E0908360F090834F12045B120EC740
:102DC00012003DEF60FA12003DBF01047F01800256
:102DD0007F00229083A8EDF012015CB4BF189083AD
:102DE000A8E0FF7E0078347C847D01120136908358
:102DF000A8E0908454F022EF547F1425E0FEEF30D9
:102E0000E70BEE7E0024B6F9EE34C7800BAF067EEA
:102E10000074C62FF9EE34C7D1DAED9083E7B40120
:102E200006D12C7401F022D12CE4F022E0FEA3E0C4
:102E3000F5828E832290841EE0FF640370109084DC
:102E40002FE060028079D1C690C701F08064EF6402
:102E500004706C90C701F090842BE0247F602714ED
:102E600060272402705790841BE030E10890C7006F
:102E70007402F08005E490C700F090C700E0FFD135
:102E8000C6FEEF4E802CE4802990842FE030E70AC4
:102E900012268524B4F974C7800C90842FE0122682
:102EA0008524C4F974C735F0D1DA9083E7D12CE0DA
:102EB000540190C700F090C7B57402F022800090D2
:102EC000C7B47411F02290841112045B90000712B1
:102ED00001755440C41313540322AF019083E7F0EB
:102EE000A3EFF022D1EBEFD1D2FF227F170218EA35
:102EF00090842DE024FE601E14602A24FA4002E132
:102F00008B24086002E18D90840EF19094127D1262
:102F10005002AD07806F908411F19094297D295063
:102F200002AD07806090842EE0FC70127B017A84F1
:102F30007917F19394047D045002AD078047EC1497
:102F4000C39402504690841412045B90842EE0FFD8
:102F500075F00390FFFD12044F1204DFC003C0029E
:102F6000C00190841412045BEF1475F003A4F58281
:102F700085F0831204DF12015CF19A5002AD06D095
:102F800001D002D0031227A4022725C1BF0226C107
:102F900012045B908430E0FFC322FF908430E0FE97
:102FA000C39FAD072290C7DBE0FF2290841BE03077
:102FB000E10B75A0407F011222EBE4F5A02290C73F
:102FC000D6E054F7F02290C7E8E090842BF090C749
:102FD000E9E090842CF090C7EAE090842EF090C74E
:102FE000EBE090842DF090C7ECE090842FF090C738
:102FF000EEE0908430F090C7EFE0D394004006906C
:10300000843074FFF090842BE05460600201DCA3F4
:10301000E012050F303300303601303603308405BE
:1030200030300630860830A30930CB0A000030DA91
:10303000022EF0022E3590842BE024FE6023240221
:10304000704090842EE0B4011690842CE090841B94
:10305000B40106E054FDF08056E04402F0805001D7
:10306000FB90842EE0701990842CE090842FB401A2
:1030700006E0FFE4FD8004E0FF7D01122DF7802FC4
:1030800080798077807890841EE024FC600E047044
:1030900010E490C700F090C7B504F02290841C8023
:1030A0002D805890842EE014600804701C11FE02DC
:1030B000279D90841E7404F090841BE04401F0A3CB
:1030C0007401F090C7B404F022803090841DE09029
:1030D000C700F090C7B57401F022801F90842BE0E8
:1030E000FF5460FEBE2014908430E0600BEF20E7B8
:1030F0000790C7C574FFF0220226C1022EBF90843C
:103100001E7403F0E490841CF02290841E7402313B
:1031100003A3F090841BF090842212045BE94A4BD5
:10312000600990842212045B12053522A9078B8264
:103130008A83E9B4FF0474FFF022E930E7088D8246
:103140008C837401F022E95460FFBF60088D828C8B
:10315000837402F022E97002F022E9F0227401A8DF
:1031600007088002C333D8FCFD7F07021C75317548
:10317000EF5470FF22C2917FFF121985D291223144
:1031800075EF540EC313FF2290847512047B908454
:1031900074EFF014600824FB60042406700C908423
:1031A00074E0FFA312045B021F5E908474E0240AA3
:1031B000FF1218EA90847512045BEF1201D97F01A7
:1031C00022AB07AE04AF057C007DFA12020DEF14AE
:1031D000540FC454F0FF908305E0540F4FF0EB54AC
:1031E0000FFFE054F04FF0E0FD7F04021C75EF2468
:1031F000FE5403FF9082D8E054FC4FF0E0FD7F03C3
:10320000021C757F031218EAEF2402FF22EF24113B
:10321000FF021C757F080218EA7F081218EAEF54B3
:10322000F0C4540FFF22EF146014146015146016DC
:10323000146017146018240570207F1180127F120B
:10324000800E7F13800A7F1480067F1580027F1610
:103250001218EA908485EFF08005E4908485F09060
:103260008485E0FF22EF547FFF908374E054804F09
:10327000F0E0FD7F05021C7590847FEFF07F061261
:1032800018EA908480EFF090847FE0540325E0FFFB
:10329000A3E054F94FF0E0FD7F06021C7551A5C371
:1032A000135401FF227F171218EAEF2251A554038D
:1032B000FF2251A5C45401FF2251A5C4135401FF9C
:1032C0002251A55430C4540FFF227F081218EAEF90
:1032D000540FFF2222EF543F9082D8F0E0FD7F1C74
:1032E000021C75C2917FE3121985D29122908481CC
:1032F000EFF07F061218EA908482EFF0908481E06C
:103300007F0060027F019084827112E0FD7F0602DF
:103310001C75EF5401C454F0FFE054EF4FF02290BD
:103320008483EFF07F061218EA908484EFF0908493
:1033300083E07F0060027F01EF5401C433333354D4
:1033400080FF908484E0547F4FF0E0FD7F06021CF4
:10335000759081BB7401F0E49081BAF09081BDF06A
:103360009081BCF0908243F0908242F0227F487BB3
:10337000017A817950020716F090800EE4F0A322C2
:10338000EFF0A3ECF0A3EDF0A3EB22908468EFF054
:10339000A3F0C2912274FFF5F012026245F0227D83
:1033A000007B01020716E475F00102046425E0FFCA
:1033B0009082D9E0229082D9E0FDE4FF229082D869
:1033C000EFF0E4FF22F07B017A8479552212045B4E
:1033D00090835CE022908010E0FFA3E0229082D7EF
:0533E000E004F0E02212
:00000001FF
