:100000000207B841800000418400014183F70041AC
:1000100083F9004183FC004383FD00FE00009082D1
:0A002000D57401F09082C9815B22C3
:10002B00022095A804A905AA06AB07E0FFE4FCFD96
:0F003B00FE22E0FF75F034908012814F022B4BB4
:10004B00021E0BC2917FE11219BCD29122D2A722C0
:10005B00022AC07F60021BEF022512E709F608DFB8
:10006B00FA8046E709F208DFFA803E88828C83E744
:10007B0009F0A3DFFA8032E309F608DFFA8078E3B0
:10008B0009F208DFFA807088828C83E309F0A3DF22
:10009B00FA806489828A83E0A3F608DFFA805889A4
:1000AB00828A83E0A3F208DFFA804C80D280FA8048
:1000BB00C680D4806980F28033801080A680EA806D
:1000CB009A80A880DA80E280CA803389828A83ECA6
:1000DB00FAE493A3C8C582C8CCC583CCF0A3C8C52A
:1000EB0082C8CCC583CCDFE9DEE7800D89828A83A9
:1000FB00E493A3F608DFF9ECFAA9F0EDFB22898271
:10010B008A83ECFAE0A3C8C582C8CCC583CCF0A324
:10011B00C8C582C8CCC583CCDFEADEE880DB898228
:10012B008A83E493A3F208DFF980CC88F0EF6001B7
:10013B000E4E60C388F0ED2402B4040050B9F58272
:10014B00EB2402B4040050AF23234582239000B666
:10015B0073BB010689828A83E0225002E722BBFE31
:10016B0002E32289828A83E49322BB010CE5822974
:10017B00F582E5833AF583E0225006E92582F8E61D
:10018B0022BBFE06E92582F8E222E58229F582E50B
:10019B00833AF583E49322BB0111F8E58229F582BA
:1001AB00E5833AF583E0C828F0E8225009C5822997
:1001BB00F8C58226C622BBFE0DC58229F8E2C58290
:1001CB002582F2E58222EA2583F583E99322BB019E
:1001DB000689828A83F0225002F722BBFE01F322AA
:1001EB00F8BB010DE58229F582E5833AF583E8F04A
:1001FB00225006E92582C8F622BBFE05E92582C8F6
:10020B00F222BC000BBE0029EF8DF084FFADF02273
:10021B00E4CCF875F008EF2FFFEE33FEEC33FCEE79
:10022B009DEC984005FCEE9DFE0FD5F0E9E4CEFD6C
:10023B0022EDF8F5F0EE8420D21CFEADF075F0083F
:10024B00EF2FFFED33FD4007985006D5F0F222C398
:10025B0098FD0FD5F0EA22C5F0F8A3E028F0C5F021
:10026B00F8E582158270021583E038F022A3F8E0DE
:10027B00C5F025F0F0E582158270021583E0C838D1
:10028B00F0E822BB0110E58229F582E5833AF5837C
:10029B00E0F5F0A3E0225009E92582F886F008E6A4
:1002AB0022BBFE0AE92582F8E2F5F008E222E5839B
:1002BB002AF583E993F5F0A3E99322EF2BFFEE3AAE
:1002CB00FEED39FDEC38FC22E88FF0A4CC8BF0A4CA
:1002DB002CFCE98EF0A42CFC8AF0EDA42CFCEA8E0D
:1002EB00F0A4CDA8F08BF0A42DCC3825F0FDE98F30
:1002FB00F0A42CCD35F0FCEB8EF0A4FEA9F0EB8F27
:10030B00F0A4CFC5F02ECD39FEE43CFCEAA42DCEF3
:10031B0035F0FDE43CFC22EB9FF5F0EA9E42F0E960
:10032B009D42F0E89C45F022E8600FECC313FCED16
:10033B0013FDEE13FEEF13FFD8F122E86010ECA2D1
:10034B00E713FCED13FDEE13FEEF13FFD8F022BB0A
:10035B00010789828A830203AA5005E9F802074242
:10036B00BBFE05E9F802074E89828A8302075ABB56
:10037B00010DE58229F582E5833AF5830203AA5044
:10038B0007E92582F8020742BBFE07E92582F8023E
:10039B00074EE58229F582E5833AF58302075AE099
:1003AB00FCA3E0FDA3E0FEA3E0FF22E0F8A3E0F94D
:1003BB00A3E0FAA3E0FB22BB010789828A83020335
:1003CB00B65005E9F802076ABBFE05E9F8020777A4
:1003DB0089828A83020784BB010DE58229F582E5B8
:1003EB00833AF5830203B65007E92582F802076AC0
:1003FB00BBFE07E92582F8020777E58229F582E53E
:10040B00833AF583020784ECF0A3EDF0A3EEF0A39F
:10041B00EFF022A8828583F0D083D08212043512AC
:10042B000435120435120435E473E493A3C583C574
:10043B00F0C583C8C582C8F0A3C583C5F0C583C802
:10044B00C582C822A42582F582E5F03583F5832287
:10045B00E0FBA3E0FAA3E0F922F8E0FBA3A3E0F9A9
:10046B0025F0F0E582158270021583E0FA38F02250
:10047B00EBF0A3EAF0A3E9F022E493FB740193FA07
:10048B00740293F922BB011A89828A83D0F0D0E0DF
:10049B00F8D0E0F9D0E0FAD0E0FBE8C0E0C0F00221
:1004AB00047B5016E9F8D083D082D0E0F9D0E0FA83
:1004BB00D0E0FBC082C08302079DBBFE16E9F8D0DB
:1004CB0083D082D0E0F9D0E0FAD0E0FBC082C083C9
:1004DB000207AF22BB010DE58229F582E5833AF5D0
:1004EB008302045B5007E92582F8020794BBFE07E1
:1004FB00E92582F80207A6E58229F582E5833AF51C
:10050B0083020484D083D082F8E493701274019335
:10051B00700DA3A393F8740193F5828883E473742D
:10052B0002936860EFA3A3A380DF8A838982E473BD
:10053B00E50B2582F582E50A3583F583B50A04853B
:10054B00820B2210AF0685820BF50A2285820BF5F2
:10055B000AD2AF22E50B2582F582E50A3583F583B6
:10056B0022E3F5F009E208B5F06BDFF58067E3F500
:10057B00F009E608B5F05EDFF5805A87F009E6086A
:10058B00B5F052DFF6804E87F009E208B5F046DF92
:10059B00F6804288828C8387F009E0A3B5F036DFC2
:1005AB00F6803288828C8387F009E493A3B5F0251B
:1005BB00DFF5802188828C83E3F5F009E0A3B5F0A9
:1005CB0014DFF5801088828C83E3F5F009E493A3A4
:1005DB00B5F002DFF402069B808780E9809080D41F
:1005EB00803E8015806E807E809D80B7808D80A33D
:1005FB0080518074803C0206A789828A83ECFAE4DE
:10060B0093F5F0A3C8C582C8CCC583CCE493A3C82B
:10061B00C582C8CCC583CCB5F076DFE3DEE1807054
:10062B0089828A83E493F5F0A3E208B5F062DFF4E4
:10063B00805E89828A83E0F5F0A3E608B5F051DF8E
:10064B00F5804D89828A83E0F5F0A3E208B5F0408E
:10065B00DFF5803C89828A83E493F5F0A3E608B545
:10066B00F02EDFF4802A8002805789828A83ECFA8D
:10067B00E493F5F0A3C8C582C8CCC583CCE0A3C86E
:10068B00C582C8CCC583CCB5F006DFE4DEE28000C2
:10069B007FFFB5F0020F2240027F012289828A83FD
:1006AB00ECFAE0F5F0A3C8C582C8CCC583CCE0A3B7
:1006BB00C8C582C8CCC583CCB5F0D5DFE5DEE380F9
:1006CB00CF89828A83ECFAE0F5F0A3C8C582C8CC47
:1006DB00C583CCE493A3C8C582C8CCC583CCB5F085
:1006EB00AFDFE4DEE280A988F0EF60010E4E60AB75
:1006FB00ED2402B404005098F582EB2402B40400FC
:10070B00508E23234582239005E373EF4E6012EF47
:10071B0060010EEDBB010B89828A83F0A3DFFCDE47
:10072B00FA2289F05007F709DFFCA9F022BBFEFC87
:10073B00F309DFFCA9F022E6FC08E6FD08E6FE085B
:10074B00E6FF22E2FC08E2FD08E2FE08E2FF22E4FB
:10075B0093FC740193FD740293FE740393FF22E6E2
:10076B00FB08E6F908E6FA08E6CBF822E2FB08E21A
:10077B00F908E2FA08E2CBF822E493F8740193F952
:10078B00740293FA740393FB22E6FB08E6FA08E67D
:10079B00F922EBF608EAF608E9F622E2FB08E2FAA0
:1007AB0008E2F922EBF208EAF208E9F222787FE498
:1007BB00F6D8FD750A88750B0075810D02080502C8
:1007CB000B74E493A3F8E493A34003F68001F208BF
:1007DB00DFF48029E493A3F85407240CC8C333C473
:1007EB00540F4420C8834004F456800146F6DFE4DE
:1007FB00800B0102040810204080900003E47E016E
:10080B009360BCA3FF543F30E509541FFEE493A350
:10081B0060010ECF54C025E060A840B8E493A3FA62
:10082B00E493A3F8E493A3C8C582C8CAC583CAF0EE
:10083B00A3C8C582C8CAC583CADFE9DEE780BE0686
:10084B0000FF0901A10109020903150026FF00752C
:10085B0008952181220904150026FF0075089522B1
:10086B009122C01201000200000040FA2201010196
:10087B000001020001090229000101008032090474
:10088B0000000203000000092111010001222400D5
:10089B00070581032100010705010322000118034D
:1008AB00530069006600740065006F00200049006A
:1008BB006E0063002E002A0353006900660074006B
:1008CB0065006F00200057006900720065006C0026
:1008DB0065007300730020004C0069006E006B0014
:1008EB00FF08A9FF08C1FF0892FF084A2401290746
:1008FB000B0D0205080B0ECC29070B0DFD0000009C
:10090B0000CC29070B0DFC000000000000000000CC
:10091B00000000000000000000CC29070B0DFB00BD
:10092B0000000000000000000000009082D21204C2
:10093B00129082DA12041E00000001F114EC4D4EED
:10094B004F6048F114EF5401FFE4FEFDFCEF60151E
:10095B009082DA1203AA9082D21203B61202D390BB
:10096B0082DA120412F11478011203469082D61225
:10097B0004129082D21203AAA804A905AA06AB07F7
:10098B001202D39082D212041280B09082DA020348
:10099B00AA1217E6C2B912015C6404600241FD9011
:1009AB00800EF0A304F09080017404F0E49082D0E8
:1009BB00F09082CC12041E00000000120024F1FC07
:1009CB009082D0E07E0029F9EE3AFA12015C908217
:1009DB00D1F09082CC1203B6C000C001C002C0039C
:1009EB009082D1E0FFE4FCFDC004C005C006C00747
:1009FB009082D612041E00000008D007D006D00546
:100A0B00D0043136C004C005C006C0079082D11295
:100A1B000036C004C005C006C0079082D612041E63
:100A2B0000000010D007D006D005D0043136D0031B
:100A3B00D002D001D0001202C6C004C005C006C04F
:100A4B00079082D1120036C004C005C006C00790C3
:100A5B0082D612041E00000004D007D006D005D0A9
:100A6B00043136D003D002D001D0001202C6C0042C
:100A7B00C005C006C0079082D1120036C004C00565
:100A8B00C006C0079082D612041E00000002D007D9
:100A9B00D006D005D0043136D003D002D001D0001F
:100AAB001202C69082D112002E1202C6D003D002BF
:100ABB00D001D0001202C69082CC1204129082D0C8
:100ACB00E004F0E0C3940C500221C6120024908085
:100ADB0003E09082D6F09082CC1203AA9082D712B8
:100AEB000412908002E0FF122A05120024740802FF
:100AFB0001D912002412015CB40811121FDC740519
:100B0B00F0908001F0908003E0FDE1A6120024122A
:100B1B00015C30E053908003E0FFF1991217EC90E9
:100B2B00800ECFF0A3EF12002312015C90800130F6
:100B3B00E1277402F0E92412F9E43AFAC003C00287
:100B4B00C001120024900032120175FD120024F135
:100B5B00E2D001D002D003C1B77401F0A3E0FF12C1
:100B6B000024122B43122C372275A91875B91B754B
:100B7B00E610D292122828B190D2B9D2AF7E017F63
:100B8B00387A807912122F167E007D00122F017E8B
:100B9B00007F117A807901122F169080047401F076
:100BAB00908010F0A37490F09082C6E4F0A3740BC5
:100BBB00F090800612041E00000000D2FBE490822D
:100BCB00C5F09082C5E0FFC39405400281DBA3E032
:100BDB00FCA3E02FF582E43CF583E09082C8F09013
:100BEB0080061203B6C000C001C002C0039082C8C9
:100BFB00120036C004C005C006C0079082D612048E
:100C0B001E00000008D007D006D005D0043136C036
:100C1B0004C005C006C0079082C8120036C004C0CD
:100C2B0005C006C0079082D612041E00000010D02B
:100C3B0007D006D005D0043136D003D002D001D076
:100C4B00001202C6C004C005C006C0079082C812BD
:100C5B000036C004C005C006C0079082D612041E21
:100C6B0000000004D007D006D005D0043136D003E5
:100C7B00D002D001D0001202C6C004C005C006C00D
:100C8B00079082C8120036C004C005C006C007908A
:100C9B0082D612041E00000002D007D006D005D069
:100CAB00043136D003D002D001D0001202C690829C
:100CBB00C812002E1202C6D003D002D001D00012EF
:100CCB0002C69080061204129082C5E004F061CD3A
:100CDB00C2FBE4FFFEFDFC9080061203B6C31203B9
:100CEB0022700A90800612041ECCCCCCCCB17612AA
:100CFB00211FF1F6EF604D908004E0B40119B1545F
:100D0B00EF7014908004F09080017403121FDB04C9
:100D1B00F0D1B1F135802DE49082C5F0908002E0E6
:100D2B0004F0E075F00684AFF0EFF012003FE060E6
:100D3B0007122082319C800C9082C5E004F0E0C346
:100D4B00940640D812192E80A990800AE0FEC39415
:100D5B000640037F012290800CE0600CA3E0FFEEC5
:100D6B00C39F40047F0180027F0022121CC790802A
:100D7B0003EFF0700F9082CA74FFF0A3740DF0F1C3
:100D8B001A1217052278C97C827A0879F8F12A7829
:100D9B00CE7C827D017BFF7A0879FDF12EC2907F9C
:100DAB0001121BFA7F01121C357F01121C207F01DF
:100DBB00122EA97D20E4FF121FCE7F05122E2BF1E0
:100DCB001AD1697F06D170F11AD169E4FFD170D1C4
:100DDB00637F01D15B7F02D15B7F03D15B7F04D14A
:100DEB005BFFD1707F01121D677F02121C647F01B4
:100DFB00121C4B7F50F1997DF47C017F0F122DFE5D
:100E0B007FFF1219EB121AD0E4FF121C9B121EC7A4
:100E1B00121D5E02004E908003E01201D9D1B190F9
:100E2B000001EF1201EBD1B17808120333900002ED
:100E3B00EF1201EBD1B17810120333900003EF12D4
:100E4B0001EBD1B17818120333900004EF0201EBE0
:100E5B00D1709082CEE004F07B017A8279CE9083C0
:100E6B00007405F0229082FD12047B9082FCEFF05F
:100E7B0014600A24FB501C6004240670289082FC2A
:100E8B00E0242AFFA312045B908300E0908305F01B
:100E9B00022CEB9082FCE0240AFFA312045B1201EC
:100EAB005CFD1219CA229080060203AA9082F312EB
:100EBB00047B9082F6EDF0908400E0604B12004EC4
:100ECB00E4908400F09082F712045BD1697F06D125
:100EDB00709082F712045BD169E4FFD1709082FAB3
:100EEB00E09082F36007F121122D228005F121128F
:100EFB002D2B9082FB7414F0D2909082FBE0FF14A8
:100F0B00F0EF70F6C290D2B9229082D60203AA7B80
:100F1B00017A8279C92212045B9082F6E0FD227D70
:100F2B00017BFF7E007F050201369082C9120412FD
:100F3B0078CD7C827D017BFF7A097902F12E78D204
:100F4B007C827D017BFF7A097907F12EF1939082E8
:100F5B00D3EFF0F19378081203339082D4EFF0F1D2
:100F6B009378101203339082D5EFF0F19378181227
:100F7B0003339082D6EFF0122B627A8279CDF1E9AE
:100F8B007A8279D27D05C1B79082C90203AA908378
:100F9B00FCE06F6005EFF0122E8C22122C53908226
:100FAB00D5EDF078D67C827A097924F12A7A097901
:100FBB00297F0D122B741215EBF1FC78DC7C82125D
:100FCB00178F9082D5E0FFF1991215EBF1E2FB7AC6
:100FDB008279DB7D0DC1B7E9240DF9E43AFA9082F1
:100FEB00F712047B9082FA7401F022908400E0FFE8
:100FFB0022E92401F9E43AFA2290837712047B90D8
:10100B00800CE07002FF22E490837AF090837AE008
:10101B00FFC39406502CEF1154FA7B01C003C0029E
:10102B00C00190837712045BA801AC02AD03D00121
:10103B00D002D00371EE7002FF2290837AE004F0AD
:10104B0080CA7F0122908312E075F00CA4244AF928
:10105B00748135F0229082EE12047BF19E9082F126
:10106B00F0D10E9082F2F09000031201759082F392
:10107B00F012050F10A70110E40310EC04112D055D
:10108B0011B00612C507133B0810FE0C13AE0E135E
:10109B006D0F13B91213D213000013E6E4908312F1
:1010AB00F0A304F09135502AA3E0C3941D5023758F
:1010BB00F034EF120042E030E014908312A3E0FE14
:1010CB0004F074F42EF582E43482F583EFF071E7CB
:1010DB0080D2908313E0146135912EE4A3F0A361C9
:1010EB0038913EC394045007E49082F4F061E2918E
:1010FB002E61E2C2AFE4FF122B537D02E4FFFEB17F
:10110B00F77D787F017E00B1F7E4FD7F02FEB1F73A
:10111B0090C7D6E04408F0E4F5AB75AC0A75AD08A2
:10112B0080FE90831374FFF0E4908312F09135509E
:10113B0044EF1154FA7B01C003C002C001911BE9BB
:10114B002404F1A4AD03D001D002D00371EE7008DA
:10115B0090831374FFF0801D1150F1B3908313E053
:10116B00F4700EA312045B71F77006908312E0A368
:10117B00F071E780B8908313E0FFF46024911BE9D2
:10118B002404F9E43AFAC001EF1154A801FC7D01E3
:10119B00D001F191E49082F4F090800DE004F080A6
:1011AB0002912E61E2911BE92404F9E43AFA90834F
:1011BB001212047B12035A74FF9113705F912190EA
:1011CB00000412037A74FF9113705191219000085F
:1011DB0012037A74FF91137043FEFD122F0190805E
:1011EB000CE06029E4908315F0F1BC502075F034CD
:1011FB00EF120042E030E0047D0AF150908315E0DD
:10120B0012003FE4F0908315E004F080DCE4908062
:10121B000DF09082F4F09127F10541C3E490831512
:10122B00F0F1BC400241BAEF1154FA7B01C003C08C
:10123B0002C0019121A801AC02AD03D001D002D0B4
:10124B000371EE706290800CE06036E4908316F0D0
:10125B00908316E0FFC394065027F1D4912171EED1
:10126B00701790831612003DE030E0047D0AF150B8
:10127B00908316E012003FE4F0908316E004F080B8
:10128B00CF90800DE014F07E007F0CC006C0077D70
:10129B00009083151153FA7B01D007D00612071665
:1012AB00E49082F4F08008908315E004F0412C90D8
:1012BB008315E0B40602912E61E2913E606390804B
:1012CB000CE0705D908312F09135504D75F034EF5A
:1012DB00120042E030E03EE4908313F0908313E081
:1012EB00FFC39406501CEF1154FA7B01C00190838D
:1012FB0012E0F1D5D00171EE6008908313E004F099
:10130B0080DA908313E0B4060C90831212003DE454
:10131B00F07D0AF15071E780AF90800C7401F08082
:10132B0008913E700490800CF0E49082F4F061E23E
:10133B00E4908312F09135400261E675F034EF12C0
:10134B000042E030E0189082F37409F0908312E0D1
:10135B009082F4F078F57C82F1819127F10571E7A9
:10136B0080D3E4908312F0A3F01150F1B371F760C6
:10137B001A9082F37410F01150FA0B78F47C82F10E
:10138B008F9127F105908313E004F071E7E0C3948C
:10139B000640D69082F37411F0908313E09082F4A0
:1013AB00F080347B017A8279F4120E218029911B13
:1013BB0090000412028EFF908010E5F0F0A3EFF086
:1013CB00E49082F4F080109082F37414F0F1EC90BE
:1013DB0082F4CFF0A3EFF09127F10522908312E076
:1013EB0004F0227E007F0C1206F2EF229000041212
:1013FB00037A1203C21202C690831412045B90008C
:10140B00081203E21202C6E4FBFAF9F8C302032244
:10141B009082EE02045B90831202045B7B017A8262
:10142B0079F1229082F47401F022908312E0FFC3D1
:10143B009406229082EE12045B900004020175F177
:10144B00E6E49082D5B1EAE41201D9120024F19EB0
:10145B006406600281ECD10E24DF604C146002A1A3
:10146B00DF12001E914475F007A424F4F582E434D6
:10147B0008F583120484C003C002C001B1F1120449
:10148B0090120024914475F007A424F7F582E434FC
:10149B0008F583E493FF900005120175FEEFC39EE0
:1014AB0050028038AF06803412001E914475F0074D
:1014BB00A424F1F582E43408F583120484C003C03C
:1014CB0002C001B1F1120490120024900005120128
:1014DB0075FF7409C39F50047F098000F198EFA139
:1014EB007712002412015C20E502A1DFF19E24FE9D
:1014FB00603614603E24FA7002A1C414602F14608D
:10150B0074240A6002A1DF9082D57401F0E4908408
:10151B0002F0908401F1ABC003C002C001B1F11223
:10152B000490F19874038044B1E5E4A1BFB1E57474
:10153B0005A1BF12001E9144FF74017E00A807088D
:10154B008005C333CE33CED8F9FF908409E0FDEF8D
:10155B005D7F0060027F01908401EFF1ABC003C09F
:10156B0002C001B1F1120490F19874011201D9B1CA
:10157B00EB7404803F12001E900003120175B4013E
:10158B0016908409E0FF9144FE7401A806088002BE
:10159B00C333D8FC4F8015908409E0FF9144FE744F
:1015AB0001A806088002C333D8FCF45F908409F0CD
:1015BB00B1EB74011201D9801B120024D10EFFB4C0
:1015CB000303E4800BEFB4020BB1EB74011201D9EE
:1015DB009082D5F09082D5E0FF229082D57401F0F5
:1015EB009082D202045B9082CC02045B122B6AD2F3
:1015FB00FD8E0C8F0D850D82850C83EDF0C2FD7574
:10160B008E02229000020201759082EE12047BD1B1
:10161B000EFEC3940640037F0122EE1220869082B9
:10162B00F112047B12015CFE20E0037F0122EE30FD
:10163B00E1037F0222911B12015C547FFFF146EF05
:10164B001201EB900032120175D394204007F14642
:10165B0074201201EBF146120175FF7E00911BF114
:10166B00F4C003C002C0019082F112045BE92412A2
:10167B00F1A4AD03D001D002D0031201369082F158
:10168B0012045B12015C44021201D97F0022E49028
:10169B0082C9F0C2BC122EDBB50703D38001C37E17
:1016AB000040027E01D2BCEE604AEF9082CA122E3D
:1016BB00B7D10EB4FF06F1401160802CC2B9F140D6
:1016CB00D114D2B9EF6402602BEF7008F140120114
:1016DB005C20E7149082CE74FFF0E4A3F0A3EFF04C
:1016EB007B017A8279CDF10590823CE004F0908207
:1016FB00C97401F09082C9E0FF22908394F1C57008
:10170B0033121912C39FFFBF04051218E880F2129F
:10171B00191C908397122F0CE004F09083971204FE
:10172B005BA801AC02AD0390839412045B7E007F37
:10173B0021120136229082CA02045B9082F11204BC
:10174B005B90003222908372EDF090837474FFF003
:10175B00A3EDF0A3EFF078777C83F1817B017A83A3
:10176B007973F105908372E090800AB40904E00468
:10177B00F022E014F02275F034A42413F9748035B0
:10178B00F0FA7B017D017E007F0C0201369082CF47
:10179B0002045B900001020175F9E43AA801FC22F6
:1017AB00F07B017A84790122FA7B01908314020485
:1017BB007B908315E0FFC394062212047BF1CEEFDE
:1017CB006404229083E3E0FF22EF75F034A424132A
:1017DB00F9748035F0A801FC7D01229082C90204C6
:1017EB007B908010E0FFA3E022E92402F9E43AFAAF
:1017FB0022908370EDF011A712015C64FD70511102
:10180B0060F1FA908371EFF0BFFF13116074FF1258
:10181B0001D91160900001740B1201EB803490839D
:10182B0071E012003FE0FF600330E028EF30E00A88
:10183B00908371E0FF7D0A12175090837112003D67
:10184B007404F075F034EF90804512044FE4F022ED
:10185B00116011AD2290836D02045B12208211A7DF
:10186B00908001E024FD601424FE6019240370268F
:10187B00116012015C54FD1201D9801A908005E0B1
:10188B00240AF08011116074011201D9908002E0DA
:10189B00FF7D09121750E4908001F02290836D02B6
:1018AB00047B9083721217C570323112C39FFFBF36
:1018BB00040411E880F4311C908375122F0CE004A2
:1018CB00F090837512045BE924011217A4AD039009
:1018DB00837212045B7E007F20120136223112B517
:1018EB000703D38001C3401EEF3120FA7B0190C761
:1018FB00B6E020E1F990839E7421F07F81122C5F7A
:10190B009081B6E004F0229081B6E0FF9081B5E0C3
:10191B00229081B5E0540375F021A424B7F97481AA
:10192B0035F0221217CEBF0414121699EF600CC2B9
:10193B00BC9081B4E060023149D2BC11E822122E76
:10194B00DBFEC39FFFBF0403D38001C34020EE9097
:10195B0082C9122EB7120024A801AC02AD037B0181
:10196B007A817992122EF4F0E49081B4F1E3221192
:10197B00A751BDEFC39407503312005E908370EFF5
:10198B00F0D394205026E0A3F0C2917F6131BC903C
:10199B008371E0FF14F0EF600BE4FF31BC90836DBB
:1019AB00F14480EBD291908370E0FF22B15E7F0017
:1019BB00228FE5C2C030C0FDAFE522E0FD7F029073
:1019CB00836DEDF0C291EF2420FF31BC90836EEF5D
:1019DB00F090836DE0FF31BCD29190836EE0FF22DB
:1019EB009082D371E59082D471539082D59119FF77
:1019FB0024FA50062407601B80207401A807088076
:101A0B0002C333D8FCF4FD9082D4E05DF0A3E05D1B
:101A1B00F08007E49082D4F0A3F09082D431C6908A
:101A2B0082D5E0FD7F01809790840B12047B90841C
:101A3B000AEFF014600C24FB600824FE60112408EC
:101A4B007024F10D51C690840AE0240AFF801351D3
:101A5B00BD90840AEFF0C39407500B12005E51C681
:101A6B007F6131BC8009E490840FF090840EF0907C
:101A7B00840EE0FF14F0EF600BE4FF31BC90840B9D
:101A8B00F14480EBD29190840AE0FE90840FE0FD4C
:101A9B00EDFF22908001E064036016A312003DE08D
:101AAB0030E00E7D0A121750908002E012003FE4E6
:101ABB00F022F131EF540EC313FF2290840EEFF09E
:101ACB00A3F0C291227D01E4FF9082EBEFF0A3ED36
:101ADB0071E69082ED71539082EEEFF09082EBE025
:101AEB00FF24FA500624076038804F7401A80708BA
:101AFB008002C333D8FCFD9082EDE04DF09082EC78
:101B0B00E060089082EEE04DF0802F9082EB122E79
:101B1B00D38002C333D8FCF4FF9082EEE05FF080F9
:101B2B00199082ED743FF09082ECE060089082EEA9
:101B3B00743FF08005E49082EEF09082ED31C69018
:101B4B0082EEE0FD7F0121CAEFF07F0161EF90840F
:101B5B001071E59084117153908412EFF090841002
:101B6B00E014601814602014602714603014603780
:101B7B0024057044908411E071DA8034908411E074
:101B8B00C371D9C3138029908411E071D8131380CA
:101B9B001F908411E01371D81313138013908411C9
:101BAB00E0C471DAC48009908411E0C471D9C41304
:101BBB005401908414F08007E4908413F0A3F09008
:101BCB008414E025E0FF908413E02FFF22131354BD
:101BDB0001908413F0908412E022EFF07F028004D6
:101BEB00EFF07F06C29131BCE4FF31BCD291229160
:101BFB000D7F0060027F01EF5401D1E554FD918B05
:101C0B0021CA9082D3EFF07F1D71EF9082D4EFF059
:101C1B009082D3E022910D7F0060027F01EF54018F
:101C2B0025E0D1E554FB918B21CA910D7F00600219
:101C3B007F01EF5401FF9082D4E054FE918B21CAB7
:101C4B00D1F59114B40107A3E04402F08007908210
:101C5B00D4E054FDF0D1ED21CAD1F59114146010EC
:101C6B00146014240270159082D4E054F7F0800CA9
:101C7B00919254FBF0800591924404F0D1ED21CA6E
:101C8B004FF0E0FD7F1D229082D4E04408F0E0226B
:101C9B009082EBEFF0E4FF71EF9082ECEFF090822B
:101CAB00EBE0B40107A3E04401F080079082ECE085
:101CBB0054FEF09082ECE0FDE4FF21CAC2B9C29061
:101CCB007F01919BD2909083FA7403F0A374E8F098
:101CDB009083FAF13A70F9E49083F8F09083F8E08E
:101CEB00FFC394505058E49082EAF0120F99E4909D
:101CFB0083FAF0A3F0F11FEF60129082EAE004F098
:101D0B00D394054007E49083F7F080199083FAE4AD
:101D1B0075F001120262C39083FBE094109083FA7A
:101D2B00E0942740D09083F7E004F0B40508A3E0DB
:101D3B0024FEA3F080089083F8E004F0809EC2900C
:101D4B00E4FF919B51D0D1C7B15E12004E9083F945
:101D5B00E0FF22C2917FE231BCD291229082D3EF7D
:101D6B00F07F069114600C24FE70159082D4E04431
:101D7B002080069082D4E054DFF0E054F7F0800B23
:101D8B009082D4E054DFF0E04408F09082D4E0FD80
:101D9B007F0621CA90841EEFF0A3EDF0E4FF71EFF4
:101DAB00908420EFF090841EE024FB6014146029D3
:101DBB002402703CD10460027F00908420F18D805E
:101DCB002FD10460027F00EF5401C43354E0FF9025
:101DDB008420E054DF4FF08017D10460027F00EFC6
:101DEB005401C4333354C0FF908420E054BF4FF0F0
:101DFB00908420E0FDE4FF21CA90841FE07F012244
:101E0B00C0E0C0F0C083C082C0D075D000C000C09D
:101E1B0001C002C003C004C005C006C007D1C790F3
:101E2B00834AEFF030E63090836B7401F090836B54
:101E3B00E06024D1C1EF701F7B017A83794B317A3B
:101E4B0090836BEFF0D3940040E37B017A83794B63
:101E5B00E0FD1217FC80D690834AE030E50C9084AD
:101E6B00007401F1DBF01166803190834AE030E4BD
:101E7B002A90800EF13A700D9084007402F01200DB
:101E8B004E519E8016F12890836C7414F0D2909072
:101E9B00836CE0FF14F0EF70F6C290D007D006D041
:101EAB0005D004D003D002D001D000D0D0D082D046
:101EBB0083D0F0D0E032D1D25401FF227D707F0766
:101ECB0031CAEF5470FF227F1771EFEF22D1D2543A
:101EDB0003FF22D1D2C45401FF2225E0FF9082D40C
:101EEB00E0229082D4E0FDE4FF229082D3EFF0E475
:101EFB00FF22D1D2C3135401FF22D1D2C4135401F8
:101F0B00FF227F0371EFEF2402FF22D1D25430C4A2
:101F1B00540FFF227F0971EFEF5401FF22C2917F13
:101F2B00E331BCD29122C2917FFF31BCD29122749A
:101F3B00FFF5F012026245F022E475F00112046421
:101F4B00EF0201D990842571EB908426EFF09084F9
:101F5B0025E0540325E0FFA3E054F94FF0E0FD7FAB
:101F6B000621CA90842771EB908428EFF090842788
:101F7B00E07F0060027F01908428F18DE0FD7F06F9
:101F8B0021CAEF5401C454F0FFE054EF4FF02290FC
:101F9B00842971EB90842AEFF0908429E07F006014
:101FAB00027F01EF5401C43333335480FF90842AF2
:101FBB00E0547F4FF0E0FD7F0621CA7F0861EF7F81
:101FCB001761EFEF2411FF21CAF131EF5470FF229B
:101FDB00F090800EE4F0A322F090C7C774FFF022BC
:101FEB00F1CAEFF1F2FF225440C41313540322122F
:101FFB0017F490837412047B121004EF7006120D09
:10200B0054EF60037FFF2290837374FFF0E490839F
:10201B0072F0908372E0FFC394065043EF11861267
:10202B00015C7033120FFCC003C002C001908374BB
:10203B0012045BA801AC02AD03D001D002D0031295
:10204B0013EE7006908372E0FF22908373E0B4FF6F
:10205B0006908372E0A3F0908372E004F080B3905B
:10206B008373E0FFF4600A1217D4A312045B1217F8
:10207B0091908373E0FF22908002E075F034A424EA
:10208B0012F9748035F0FA7B0122C0E0C0F0C083F6
:10209B00C082C0D075D000C000C001C002C003C058
:1020AB0007C2C6908005E0D394004008E014F0907E
:1020BB008000800D908000E0FF04F0EFD3940A4085
:1020CB0007E4F090800404F0C2B9908349E4F090E7
:1020DB008349E0FFC394065024EF118612015CD3B1
:1020EB009403401190003374011201A2D394054064
:1020FB0004E41201D9908349E004F080D2D2B9D024
:10210B0007D003D002D001D000D0D0D082D083D062
:10211B00F0D0E032E4F5C8C2C6F5C1D2CFF5CBF5AD
:10212B00CAD2ADD2C82290FFDF12053B122BAE12E2
:10213B001FE33159A3F03159A3A37415F03157A9FB
:10214B0082AA8312170590002102053B7B01850AA9
:10215B0083850B8222514E12047BF1AE3159A312AF
:10216B00045BC003C002C00151439082CC12047BBC
:10217B0090000751469082CF12047B3157A982AA57
:10218B0083122C53D001D002D00312144AEF6006F5
:10219B003159E0FF80027F8090000A02053BF1AECF
:1021AB00EDF0514E12047B90FFFC12053B90C7B62D
:1021BB00E020E1F990000712055FE064226007510F
:1021CB003D7480F08062122EDBFEC39FFFBF0403C1
:1021DB00D38001C34038EE540375F022A4243DF99B
:1021EB00748235F0FA315712047B5143C003C0029D
:1021FB00C001315912045BA801AC02AD03D001D070
:10220B0002D003122EF4F0513D74FFF0801A90812E
:10221B00B47401F0514378927C817D017E007F2262
:10222B00120136513D7460F0513DE0FF9000080201
:10223B00053B90000302055F90000412055F02044A
:10224B005B7B0190FFFD02053B7A8379AF514C120A
:10225B00047B7A8379AC514C12047B7B017A8379B2
:10226B00F0C003C002C0019083E4D1A7D001D0021B
:10227B00D003120539EF146021146020146026245A
:10228B00FE601704701D9083AC12045B9083AFE06B
:10229B00F1ED5002AD0671586166C1BE90C7C574B1
:1022AB00FFF022B10B229083F2E024FE601E14603B
:1022BB002A24FA4002614A24086002614C9083D3BD
:1022CB00714E94127D125002AD07806F9083D671C0
:1022DB004E94297D295002AD0780609083F3E0FC7A
:1022EB0070127B017A8379DC715194047D04500266
:1022FB00AD078047EC14C3940250449083D9120469
:10230B005B9083F3E0FF75F00390FFFD12044F1217
:10231B0004DFC003C002C0019083D912045BEF1429
:10232B0075F003A4F58285F0831204DF12015CF1D2
:10233B00ED5002AD06D001D002D0037158801CA124
:10234B000B415412045B9083F5E0FFC322F1E3EDE4
:10235B00F09083D3F1709083B4F0229083B3E0FDBF
:10236B00701C9083F6E0B4010890C7B4E04410F001
:10237B00229083F67401F0E490C7B5F0C1BE908350
:10238B00B4E0FFEDC39F50079083B3E0FF8000E400
:10239B00FEEEC39F50169083B0122CBDFD74002E21
:1023AB00F582E434C7F583EDF00E80E59083B4E05D
:1023BB00FEEFC39E50069083F67401F090C7B5EF05
:1023CB00F0FD9083B1E48DF01202629083B3E0C311
:1023DB009FF02290C7E8E09083F0F090C7E9E0907F
:1023EB0083F1F090C7EAE09083F3F090C7EBE090B5
:1023FB0083F2F090C7ECE09083F4F090C7EEE0909E
:10240B0083F5F090C7EFE0D3940040069083F5740A
:10241B00FFF09083F0E05460600281EDA3E01205C1
:10242B000F244A00244C01244C032499052448060C
:10243B00249D0824B50924E10A000024EB41B1C115
:10244B00D69083F0E024FE60232402703F9083F348
:10245B00E0B401169083F1E09083E0B40106E05400
:10246B00FDF08057E04402F08051A10B9083F3E024
:10247B0070189083F1E09083F4B40106E0FFE4FD63
:10248B008004E0FF7D01F1798031807480727403E8
:10249B00E1D99083E3E024FC600904700BE4D1C51F
:1024AB0004F0229083E1803180569083F3E0146036
:1024BB000C0470209083E37403F1DCC1BE9083E3C2
:1024CB007404F09083E0E04401F0A37401F090C732
:1024DB00B404F022802A9083E2E0D1C57401F0228B
:1024EB00801E9083F0E0FF5460FEBE20139083F5B6
:1024FB00E0600BEF20E70790C7C574FFF022415453
:10250B0090C7B47411F022C0E0C0F0C083C082C089
:10251B00D075D000C000C001C002C003C004C0050C
:10252B00C006C00790C7A8E012050F256D002577E0
:10253B0004257F0825970C25A21025AC1825B61C61
:10254B0025C52026192425C52826192C25C5302656
:10255B00193425C53826193C25C5402619440000D9
:10256B00268C90C7AB7401F071DEC18C90C7AB7435
:10257B0002F0C18C90C7AB7404F07B007A00790039
:10258B00F1E3E4F0A3F09083F6F0C18C90C7AB7449
:10259B0008F0122D4EC18C90C7AB7410F0F1F8C13E
:1025AB008C90C7A97401F07166C18C90C7AA740195
:1025BB00F09083B3E4F05154C18C90C7A8E024E8A9
:1025CB00122ECA8002C333D8FC90C7A9D1CD24B434
:1025DB00F974C7D1AFE0F1B49083A8122CC89083E3
:1025EB00A4E09083AA122CD7F161122EE5C003C090
:1025FB0002C001F1C624B2F582E43483F583D1A77E
:10260B00D001D002D003F1BD6077E0FF806290C7AC
:10261B00A8E024E4122ECA8002C333D8FC90C7AAC8
:10262B00D1CD24C4F974C7D1AFE0F1B674C09FF912
:10263B0074C695F0AF019083A8D1B6E075F002A4F3
:10264B0024C5F974C735F0AF019083AAF0A3EFF05E
:10265B00F161122EE5C003C002C001F1C624C1F521
:10266B0082E43483F583D1A7D001D002D003F1BD2E
:10267B00A3E0FCA3E0FD9083AAE0FAA3E0FB122DFC
:10268B0083D007D006D005D004D003D002D001D020
:10269B0000D0D0D082D083D0F0D0E03212045B894E
:1026AB00828A832235F0AF019083A6F0A3EFF090DE
:1026BB0083A42290C7B47402F02290C700F090C795
:1026CB00B522F0EF547F75F002A4229083E3E0FF74
:1026DB00640370139083F4E060028078F16D121F35
:1026EB00F290C701F08065EF6404706890C701F049
:1026FB009083F0E0247F602A14602A2402705390A8
:10270B0083E0E030E10890C7007402F08005E490AC
:10271B00C700F090C700E0FFF16D121FF2FEEF4E05
:10272B00802AE480279083F4E030E709D1CF24B4EA
:10273B00F974C7800B9083F4E0D1CF24C4F974C72C
:10274B0035F0F1CF9083ACF164E05401D1C5740244
:10275B00F0228000A10B9083AAE0FEA3E0F5828E0D
:10276B0083229083D612045B900007020175EF540D
:10277B007F1425E0FEEF30E70BEE7E0024B6F9EE7A
:10278B0034C7800BAF067E0074C62FF9EE34C7F149
:10279B00CFED9083ACB40106F1647401F022F164C7
:1027AB00E4F02290FFFF02053B547F75F080A4FFFD
:1027BB00C3221205399083A5EFF0229083A4E07514
:1027CB00F003A422AF019083ACF0A3EFF02290832F
:1027DB00E3F0E49083E1F0229083B012047B9083CA
:1027EB00B322FF9083F5E0FEC39FAD07227402F185
:1027FB00D9A3F09083E0F09083E712045BE94A4B96
:10280B0060099083E712045B120535221227AEEFA5
:10281B00F075A50275D90190000102053B71AEF070
:10282B00FBFAF99082CD12047B7BFF7A21793190F0
:10283B0082D012047B7A2879179082D312047B7A88
:10284B002179607F01312E7BFF7A2179A97D227F4F
:10285B000111687B007A0079007D217F811217E6D8
:10286B00AC07EF547FFE149082CCF07401A80608DD
:10287B008002C333D8FC9082CDF0EC30E742EDD32D
:10288B009400402E120024E94A4B601B12002431A5
:10289B001A24B5F582E43483F58312047B90C7AC1C
:1028AB0031114E90C7ACF090C7DE31114E90C7DEA0
:1028BB00F02290C7AC312390C7ACF090C7DE8042BA
:1028CB00EDD394004030120024E94A4B601B1200F8
:1028DB0024311A24C4F582E43483F58312047B90EB
:1028EB00C7AD31114E90C7ADF090C7DF31114E908F
:1028FB00C7DFF0EC619390C7AD312390C7ADF0907B
:10290B00C7DFE05EF022E0FF9082CDE0FEEF229089
:10291B0082CCE075F003A422E0FF9082CDE0F4FEC0
:10292B00EF5E229082CA12047B7BFF7A08796E904D
:10293B0083D312047B9083D312047B7A0879809023
:10294B0083D612047B7A0879EB9083D912047B909F
:10295B0083DC7404F0A314F0A37409F0A37404F0E3
:10296B009083E37402F0E49083E0F09083F6F090B0
:10297B0083E1F0A3F01217409083E412047B908262
:10298B00CD12045B9083E712047B9082D012045B20
:10299B009083EA12047B31FF9083ED12047BEF608E
:1029AB0009714B7F32519F54F7F0D2BBD2BC90C709
:1029BB00AE741DF090C7AC7401F090C7A9741FF0F2
:1029CB0090C7AD7401F090C7AA741FF090C7813106
:1029DB00F290C7887418F0A331F290C7DE04F0A30D
:1029EB00F0E4A3F0A3F0227410F0E4A3F0A3F0A39F
:1029FB00F0A3F0229082D302045B9082D2EFF0A37B
:102A0B0012047B7A09790C7F05717478E07C827DE6
:102A1B00017BFF7A0979117E007F1312013631FF9A
:102A2B00120FFC78E17C8212178F519931FF9000C5
:102A3B000D5195780812033390000E5195781012B2
:102A4B00033390000F51957818120333900010EF59
:102A5B001201EB9082D2E09000111201EB9082D622
:102A6B00E09082EDF0714378EE7C827D01120F2EA7
:102A7B0071627A8279DB9082F712047BE49082FA9E
:102A8B00F07A8279E07D13020EB7EF1201EB9082A0
:102A9B00D70203AA51A690C7D6E022E4FEEEC39F4D
:102AAB005012E4FDE4FC000CECB416FA0DEDB4622C
:102ABB00F30E80E922C0E0C0F0C083C082C0D075A5
:102ACB00D000C000C001C002C003C004C005C006D6
:102ADB00C00790C7D6E030E7227480F09083E0E027
:102AEB0030E11F90C7D6E04402F00000E054FD44F3
:102AFB0001F07F07519F54FEF080079083E0E04484
:102B0B0004F09083E0E09083E330E0057404F08000
:102B1B00037402F09083EA12045B120535D007D0E0
:102B2B0006D005D004D003D002D001D000D0D0D035
:102B3B0082D083D0F0D0E032E9240DF9E43AFA22C6
:102B4B0090C7D6E04408F022716AD2FD8FFA20FCC0
:102B5B00FDC2FD758E02227F50120F997B012275EB
:102B6B008E0175FAAA75FA552278DB7C827D017B82
:102B7B00FF7E000201369083E0E030E10A75A04051
:102B8B007F0151A6E4F5A02275F002A424C5F974C7
:102B9B00C735F08982F58374FFF022EF20E703EF4E
:102BAB00719322E49081B4F09081B6F09081B5F0EE
:102BBB0090823CF090823B22908423ECF0A3EDF0CA
:102BCB00716AD2FD8E088F09EB1BAE0270011A4E93
:102BDB006027908423E475F00112027885F082F56A
:102BEB0083E0FF0509E509AC087002050814F582BE
:102BFB008C83EFF030FCD180FBC2FD758E022290EE
:102C0B008421EAF0A3EBF090842174FFF5F012021B
:102C1B007845F060168F828E83E08D828C83F00F67
:102C2B00BF00010E0DBD00010C80DC22915390837F
:102C3B00FDEFF09083FFE0041215EA120FE9FB7A27
:102C4B008379FD7D03020EB79082D202047B90C77D
:102C5B00DBE0FF2290839B12047B90839AEFF012B0
:102C6B0027B49083A091C890839AE09083A291D7C8
:102C7B00E490839FF090839EE0FFA3E0FEC39F5000
:102C8B001E90839B91BDFF9083A0E0FCA3E02EF5EB
:102C9B0082E43CF583EFF090839FE004F080D690C4
:102CAB00839EE0FF9083A2E0FCA3E0F5828C83EF90
:102CBB00F02212045B8E8275830002017574009FF3
:102CCB00F974C795F0AF01F0A3EFF022547F75F0C4
:102CDB0002A424B5F974C735F0AF01F0A3EFF022CD
:102CEB0090830212047BC2918FE5C2C0E4FF9083F4
:102CFB0005E0FCEFC39C501790830212045B8F829C
:102D0B0091C2FD30C0FDAEE58DE5C2C00F80DF3056
:102D1B00C0FDAEE5D29122908305EDF07FA080C07F
:102D2B00908305EDF07FB080B7EF44A8FF90841936
:102D3B00E0908305F080A990C7D6E054F7F0227598
:102D4B00D90122E4FD9083E0E054FBF09083E3E0B3
:102D5B00B404089083E0E030E1010D9083E3740547
:102D6B00F09083ED12045BE94A4B600BAF05908347
:102D7B00ED1226A712053922A9078B828A83E9B4A3
:102D8B00FF0474FFF022E930E7088D828C83740115
:102D9B00F022E95460FFBF60088D828C837402F0CF
:102DAB0022E97002F022E9F0227401A807088002E0
:102DBB00C333D8FCFD7F070219CA90841B12047B16
:102DCB0090841AEFF014600824FB60042406700C46
:102DDB0090841AE0FFA312045B021A3390841AE06A
:102DEB00240AFF121BEF90841B12045BEF1201D914
:102DFB007F0122AB07AE04AF057C007DFA12020DFA
:102E0B00EF14540FC454F0FF9082D3E0540F4FF0E3
:102E1B00EB540FFFE054F04FF0E0FD7F040219CAB2
:102E2B00EF24FE5403FF9082D3E054FC4FF0E0FDFF
:102E3B007F030219CA7F08121BEFEF54F0C4540F23
:102E4B00FF22EF146014146015146016146017142D
:102E5B006018240570207F1180127F12800E7F1363
:102E6B00800A7F1480067F1580027F16121BEF905D
:102E7B00842BEFF08005E490842BF090842BE0FF03
:102E8B0022EF547FFF9082F3E054804FF0E0FD7F00
:102E9B00050219CA7F08121BEFEF540FFF22EF54E4
:102EAB003F9082D3F0E0FD7F1C0219CA540375F0EA
:102EBB0022A4243DF9748235F0FA7B0102047B13C2
:102ECB001313541F9083A4F0E0FF7401A80708228A
:102EDB0090823CE0FF90823BE022E0FD9083A8E0F3
:102EEB00FEA3E0AA06F97B01227E007F22120136A7
:102EFB0090823BE004227F487B017A81794A02076A
:102F0B0016FA7B0112047B9081B5227D007B0102B6
:022F1B00071697
:00000001FF
